{
  "address": "0x205E4710BAb13A69B6Dc42622024c6099DaA873E",
  "abi": [
    {
      "inputs": [
        {
          "internalType": "address",
          "name": "priceFeed",
          "type": "address"
        }
      ],
      "stateMutability": "nonpayable",
      "type": "constructor"
    },
    {
      "inputs": [],
      "name": "FundMe__NotOwner",
      "type": "error"
    },
    {
      "anonymous": false,
      "inputs": [
        {
          "indexed": true,
          "internalType": "address",
          "name": "previousOwner",
          "type": "address"
        },
        {
          "indexed": true,
          "internalType": "address",
          "name": "newOwner",
          "type": "address"
        }
      ],
      "name": "OwnershipTransferred",
      "type": "event"
    },
    {
      "inputs": [],
      "name": "MINIMUM_USD",
      "outputs": [
        {
          "internalType": "uint256",
          "name": "",
          "type": "uint256"
        }
      ],
      "stateMutability": "view",
      "type": "function"
    },
    {
      "inputs": [],
      "name": "cheaperWithdraw",
      "outputs": [],
      "stateMutability": "nonpayable",
      "type": "function"
    },
    {
      "inputs": [],
      "name": "fund",
      "outputs": [],
      "stateMutability": "payable",
      "type": "function"
    },
    {
      "inputs": [
        {
          "internalType": "address",
          "name": "fundingAddress",
          "type": "address"
        }
      ],
      "name": "getAddressToAmountFunded",
      "outputs": [
        {
          "internalType": "uint256",
          "name": "",
          "type": "uint256"
        }
      ],
      "stateMutability": "view",
      "type": "function"
    },
    {
      "inputs": [
        {
          "internalType": "uint256",
          "name": "index",
          "type": "uint256"
        }
      ],
      "name": "getFunder",
      "outputs": [
        {
          "internalType": "address",
          "name": "",
          "type": "address"
        }
      ],
      "stateMutability": "view",
      "type": "function"
    },
    {
      "inputs": [],
      "name": "getOwner",
      "outputs": [
        {
          "internalType": "address",
          "name": "",
          "type": "address"
        }
      ],
      "stateMutability": "view",
      "type": "function"
    },
    {
      "inputs": [],
      "name": "getPriceFeed",
      "outputs": [
        {
          "internalType": "contract AggregatorV3Interface",
          "name": "",
          "type": "address"
        }
      ],
      "stateMutability": "view",
      "type": "function"
    },
    {
      "inputs": [],
      "name": "getVersion",
      "outputs": [
        {
          "internalType": "uint256",
          "name": "",
          "type": "uint256"
        }
      ],
      "stateMutability": "view",
      "type": "function"
    },
    {
      "inputs": [
        {
          "internalType": "address payable",
          "name": "_to",
          "type": "address"
        },
        {
          "internalType": "uint256",
          "name": "_amount",
          "type": "uint256"
        }
      ],
      "name": "transfer",
      "outputs": [],
      "stateMutability": "nonpayable",
      "type": "function"
    },
    {
      "inputs": [
        {
          "internalType": "address payable",
          "name": "newOwner",
          "type": "address"
        }
      ],
      "name": "transferOwnership",
      "outputs": [],
      "stateMutability": "nonpayable",
      "type": "function"
    },
    {
      "inputs": [],
      "name": "withdraw",
      "outputs": [],
      "stateMutability": "nonpayable",
      "type": "function"
    }
  ],
  "transactionHash": "0x8352f2f3df9ee21d9c2b21e157670ffe93aee589c94450e8634e7fe9461da888",
  "args": [
    "0x694AA1769357215DE4FAC081bf1f309aDC325306"
  ],
  "numDeployments": 3,
  "solcInputHash": "b3195eb0f464a61d855a49e2f9972cd3",
  "bytecode": "0x60806040523480156200001157600080fd5b506040516200185738038062001857833981810160405281019062000037919062000129565b80600460006101000a81548173ffffffffffffffffffffffffffffffffffffffff021916908373ffffffffffffffffffffffffffffffffffffffff160217905550336000806101000a81548173ffffffffffffffffffffffffffffffffffffffff021916908373ffffffffffffffffffffffffffffffffffffffff160217905550506200015b565b600080fd5b600073ffffffffffffffffffffffffffffffffffffffff82169050919050565b6000620000f182620000c4565b9050919050565b6200010381620000e4565b81146200010f57600080fd5b50565b6000815190506200012381620000f8565b92915050565b600060208284031215620001425762000141620000bf565b5b6000620001528482850162000112565b91505092915050565b6116ec806200016b6000396000f3fe60806040526004361061009c5760003560e01c80639e87a5cd116100645780639e87a5cd14610176578063a9059cbb146101a1578063b60d4288146101ca578063be2693f0146101d4578063d7b4750c146101eb578063f2fde38b146102285761009c565b80630343fb25146100a15780630d8e6e2c146100de5780633ccfd60b146101095780636b69a59214610120578063893d20e81461014b575b600080fd5b3480156100ad57600080fd5b506100c860048036038101906100c39190610f28565b610251565b6040516100d59190610f6e565b60405180910390f35b3480156100ea57600080fd5b506100f361029a565b6040516101009190610f6e565b60405180910390f35b34801561011557600080fd5b5061011e610332565b005b34801561012c57600080fd5b5061013561055e565b6040516101429190610f6e565b60405180910390f35b34801561015757600080fd5b5061016061056b565b60405161016d9190610f98565b60405180910390f35b34801561018257600080fd5b5061018b610594565b6040516101989190611012565b60405180910390f35b3480156101ad57600080fd5b506101c860048036038101906101c39190611097565b6105be565b005b6101d261078d565b005b3480156101e057600080fd5b506101e96108c8565b005b3480156101f757600080fd5b50610212600480360381019061020d91906110d7565b610b58565b60405161021f9190610f98565b60405180910390f35b34801561023457600080fd5b5061024f600480360381019061024a9190611104565b610ba0565b005b6000600260008373ffffffffffffffffffffffffffffffffffffffff1673ffffffffffffffffffffffffffffffffffffffff168152602001908152602001600020549050919050565b6000600460009054906101000a900473ffffffffffffffffffffffffffffffffffffffff1673ffffffffffffffffffffffffffffffffffffffff166354fd4d506040518163ffffffff1660e01b8152600401602060405180830381865afa158015610309573d6000803e3d6000fd5b505050506040513d601f19601f8201168201806040525081019061032d9190611146565b905090565b60008054906101000a900473ffffffffffffffffffffffffffffffffffffffff1673ffffffffffffffffffffffffffffffffffffffff163373ffffffffffffffffffffffffffffffffffffffff16146103b7576040517f579610db00000000000000000000000000000000000000000000000000000000815260040160405180910390fd5b60005b600180549050811015610463576000600182815481106103dd576103dc611173565b5b9060005260206000200160009054906101000a900473ffffffffffffffffffffffffffffffffffffffff1690506000600260008373ffffffffffffffffffffffffffffffffffffffff1673ffffffffffffffffffffffffffffffffffffffff1681526020019081526020016000208190555050808061045b906111d1565b9150506103ba565b50600067ffffffffffffffff81111561047f5761047e611219565b5b6040519080825280602002602001820160405280156104ad5781602001602082028036833780820191505090505b50600190805190602001906104c3929190610e1e565b5060008060009054906101000a900473ffffffffffffffffffffffffffffffffffffffff1673ffffffffffffffffffffffffffffffffffffffff164760405161050b90611279565b60006040518083038185875af1925050503d8060008114610548576040519150601f19603f3d011682016040523d82523d6000602084013e61054d565b606091505b505090508061055b57600080fd5b50565b6802b5e3af16b188000081565b60008060009054906101000a900473ffffffffffffffffffffffffffffffffffffffff16905090565b6000600460009054906101000a900473ffffffffffffffffffffffffffffffffffffffff16905090565b60008054906101000a900473ffffffffffffffffffffffffffffffffffffffff1673ffffffffffffffffffffffffffffffffffffffff163373ffffffffffffffffffffffffffffffffffffffff1614610643576040517f579610db00000000000000000000000000000000000000000000000000000000815260040160405180910390fd5b47811115610686576040517f08c379a000000000000000000000000000000000000000000000000000000000815260040161067d90611311565b60405180910390fd5b80600360003373ffffffffffffffffffffffffffffffffffffffff1673ffffffffffffffffffffffffffffffffffffffff16815260200190815260200160002060008282546106d59190611331565b9250508190555060008273ffffffffffffffffffffffffffffffffffffffff168260405161070290611279565b60006040518083038185875af1925050503d806000811461073f576040519150601f19603f3d011682016040523d82523d6000602084013e610744565b606091505b5050905080610788576040517f08c379a000000000000000000000000000000000000000000000000000000000815260040161077f906113b1565b60405180910390fd5b505050565b6802b5e3af16b18800006107cc600460009054906101000a900473ffffffffffffffffffffffffffffffffffffffff1634610d5190919063ffffffff16565b101561080d576040517f08c379a00000000000000000000000000000000000000000000000000000000081526004016108049061141d565b60405180910390fd5b34600260003373ffffffffffffffffffffffffffffffffffffffff1673ffffffffffffffffffffffffffffffffffffffff168152602001908152602001600020600082825461085c9190611331565b925050819055506001339080600181540180825580915050600190039060005260206000200160009091909190916101000a81548173ffffffffffffffffffffffffffffffffffffffff021916908373ffffffffffffffffffffffffffffffffffffffff160217905550565b60008054906101000a900473ffffffffffffffffffffffffffffffffffffffff1673ffffffffffffffffffffffffffffffffffffffff163373ffffffffffffffffffffffffffffffffffffffff161461094d576040517f579610db00000000000000000000000000000000000000000000000000000000815260040160405180910390fd5b600060018054806020026020016040519081016040528092919081815260200182805480156109d157602002820191906000526020600020905b8160009054906101000a900473ffffffffffffffffffffffffffffffffffffffff1673ffffffffffffffffffffffffffffffffffffffff1681526020019060010190808311610987575b5050505050905060005b8151811015610a5c5760008282815181106109f9576109f8611173565b5b602002602001015190506000600260008373ffffffffffffffffffffffffffffffffffffffff1673ffffffffffffffffffffffffffffffffffffffff16815260200190815260200160002081905550508080610a54906111d1565b9150506109db565b50600067ffffffffffffffff811115610a7857610a77611219565b5b604051908082528060200260200182016040528015610aa65781602001602082028036833780820191505090505b5060019080519060200190610abc929190610e1e565b5060008060009054906101000a900473ffffffffffffffffffffffffffffffffffffffff1673ffffffffffffffffffffffffffffffffffffffff1647604051610b0490611279565b60006040518083038185875af1925050503d8060008114610b41576040519150601f19603f3d011682016040523d82523d6000602084013e610b46565b606091505b5050905080610b5457600080fd5b5050565b600060018281548110610b6e57610b6d611173565b5b9060005260206000200160009054906101000a900473ffffffffffffffffffffffffffffffffffffffff169050919050565b60008054906101000a900473ffffffffffffffffffffffffffffffffffffffff1673ffffffffffffffffffffffffffffffffffffffff163373ffffffffffffffffffffffffffffffffffffffff1614610c25576040517f579610db00000000000000000000000000000000000000000000000000000000815260040160405180910390fd5b600073ffffffffffffffffffffffffffffffffffffffff168173ffffffffffffffffffffffffffffffffffffffff1603610c94576040517f08c379a0000000000000000000000000000000000000000000000000000000008152600401610c8b90611489565b60405180910390fd5b8073ffffffffffffffffffffffffffffffffffffffff1660008054906101000a900473ffffffffffffffffffffffffffffffffffffffff1673ffffffffffffffffffffffffffffffffffffffff167f8be0079c531659141344cd1fd0a4f28419497f9722a3daafe3b4186f6b6457e060405160405180910390a3806000806101000a81548173ffffffffffffffffffffffffffffffffffffffff021916908373ffffffffffffffffffffffffffffffffffffffff16021790555050565b600080610d5d83610d8d565b90506000670de0b6b3a76400008583610d7691906114a9565b610d80919061151a565b9050809250505092915050565b6000808273ffffffffffffffffffffffffffffffffffffffff1663feaf968c6040518163ffffffff1660e01b815260040160a060405180830381865afa158015610ddb573d6000803e3d6000fd5b505050506040513d601f19601f82011682018060405250810190610dff91906115c3565b5050509150506402540be40081610e16919061163e565b915050919050565b828054828255906000526020600020908101928215610e97579160200282015b82811115610e965782518260006101000a81548173ffffffffffffffffffffffffffffffffffffffff021916908373ffffffffffffffffffffffffffffffffffffffff16021790555091602001919060010190610e3e565b5b509050610ea49190610ea8565b5090565b5b80821115610ec1576000816000905550600101610ea9565b5090565b600080fd5b600073ffffffffffffffffffffffffffffffffffffffff82169050919050565b6000610ef582610eca565b9050919050565b610f0581610eea565b8114610f1057600080fd5b50565b600081359050610f2281610efc565b92915050565b600060208284031215610f3e57610f3d610ec5565b5b6000610f4c84828501610f13565b91505092915050565b6000819050919050565b610f6881610f55565b82525050565b6000602082019050610f836000830184610f5f565b92915050565b610f9281610eea565b82525050565b6000602082019050610fad6000830184610f89565b92915050565b6000819050919050565b6000610fd8610fd3610fce84610eca565b610fb3565b610eca565b9050919050565b6000610fea82610fbd565b9050919050565b6000610ffc82610fdf565b9050919050565b61100c81610ff1565b82525050565b60006020820190506110276000830184611003565b92915050565b600061103882610eca565b9050919050565b6110488161102d565b811461105357600080fd5b50565b6000813590506110658161103f565b92915050565b61107481610f55565b811461107f57600080fd5b50565b6000813590506110918161106b565b92915050565b600080604083850312156110ae576110ad610ec5565b5b60006110bc85828601611056565b92505060206110cd85828601611082565b9150509250929050565b6000602082840312156110ed576110ec610ec5565b5b60006110fb84828501611082565b91505092915050565b60006020828403121561111a57611119610ec5565b5b600061112884828501611056565b91505092915050565b6000815190506111408161106b565b92915050565b60006020828403121561115c5761115b610ec5565b5b600061116a84828501611131565b91505092915050565b7f4e487b7100000000000000000000000000000000000000000000000000000000600052603260045260246000fd5b7f4e487b7100000000000000000000000000000000000000000000000000000000600052601160045260246000fd5b60006111dc82610f55565b91507fffffffffffffffffffffffffffffffffffffffffffffffffffffffffffffffff820361120e5761120d6111a2565b5b600182019050919050565b7f4e487b7100000000000000000000000000000000000000000000000000000000600052604160045260246000fd5b600081905092915050565b50565b6000611263600083611248565b915061126e82611253565b600082019050919050565b600061128482611256565b9150819050919050565b600082825260208201905092915050565b7f43616e27742073656e64206d6f7265207468616e20746865206f776e6572732060008201527f6f776e732c2061626f7274696e672e0000000000000000000000000000000000602082015250565b60006112fb602f8361128e565b91506113068261129f565b604082019050919050565b6000602082019050818103600083015261132a816112ee565b9050919050565b600061133c82610f55565b915061134783610f55565b925082820190508082111561135f5761135e6111a2565b5b92915050565b7f5472616e73616374696f6e206661696c65642c2061626f7274696e6700000000600082015250565b600061139b601c8361128e565b91506113a682611365565b602082019050919050565b600060208201905081810360008301526113ca8161138e565b9050919050565b7f596f75206e65656420746f207370656e64206d6f726520455448210000000000600082015250565b6000611407601b8361128e565b9150611412826113d1565b602082019050919050565b60006020820190508181036000830152611436816113fa565b9050919050565b7f496e76616c696420416464726573730000000000000000000000000000000000600082015250565b6000611473600f8361128e565b915061147e8261143d565b602082019050919050565b600060208201905081810360008301526114a281611466565b9050919050565b60006114b482610f55565b91506114bf83610f55565b92508282026114cd81610f55565b915082820484148315176114e4576114e36111a2565b5b5092915050565b7f4e487b7100000000000000000000000000000000000000000000000000000000600052601260045260246000fd5b600061152582610f55565b915061153083610f55565b9250826115405761153f6114eb565b5b828204905092915050565b600069ffffffffffffffffffff82169050919050565b61156a8161154b565b811461157557600080fd5b50565b60008151905061158781611561565b92915050565b6000819050919050565b6115a08161158d565b81146115ab57600080fd5b50565b6000815190506115bd81611597565b92915050565b600080600080600060a086880312156115df576115de610ec5565b5b60006115ed88828901611578565b95505060206115fe888289016115ae565b945050604061160f88828901611131565b935050606061162088828901611131565b925050608061163188828901611578565b9150509295509295909350565b60006116498261158d565b91506116548361158d565b92508282026116628161158d565b91507f8000000000000000000000000000000000000000000000000000000000000000841460008412161561169a576116996111a2565b5b82820584148315176116af576116ae6111a2565b5b509291505056fea2646970667358221220e3a07caeca8b8118d1ed05a468c2ce55649df2a54caae1f01dcba26d02aaad1764736f6c63430008130033",
  "devdoc": {
    "author": "Patrick Collins",
    "details": "This implements price feeds as our library",
    "kind": "dev",
    "methods": {
      "getAddressToAmountFunded(address)": {
        "params": {
          "fundingAddress": "the address of the funder"
        },
        "returns": {
          "_0": "the amount funded"
        }
      }
    },
    "title": "A sample Funding Contract",
    "version": 1
  },
  "userdoc": {
    "kind": "user",
    "methods": {
      "getAddressToAmountFunded(address)": {
        "notice": "Gets the amount that an address has funded"
      },
      "transferOwnership(address)": {
        "notice": "Funds our contract based on the ETH/USD price"
      }
    },
    "notice": "This contract is for creating a sample funding contract",
    "version": 1
  },
  "storageLayout": {
    "storage": [
      {
        "astId": 64,
        "contract": "contracts/FundMe.sol:FundMe",
        "label": "i_owner",
        "offset": 0,
        "slot": "0",
        "type": "t_address_payable"
      },
      {
        "astId": 67,
        "contract": "contracts/FundMe.sol:FundMe",
        "label": "s_funders",
        "offset": 0,
        "slot": "1",
        "type": "t_array(t_address)dyn_storage"
      },
      {
        "astId": 71,
        "contract": "contracts/FundMe.sol:FundMe",
        "label": "s_addressToAmountFunded",
        "offset": 0,
        "slot": "2",
        "type": "t_mapping(t_address,t_uint256)"
      },
      {
        "astId": 75,
        "contract": "contracts/FundMe.sol:FundMe",
        "label": "transfered",
        "offset": 0,
        "slot": "3",
        "type": "t_mapping(t_address,t_uint256)"
      },
      {
        "astId": 78,
        "contract": "contracts/FundMe.sol:FundMe",
        "label": "s_priceFeed",
        "offset": 0,
        "slot": "4",
        "type": "t_contract(AggregatorV3Interface)45"
      }
    ],
    "types": {
      "t_address": {
        "encoding": "inplace",
        "label": "address",
        "numberOfBytes": "20"
      },
      "t_address_payable": {
        "encoding": "inplace",
        "label": "address payable",
        "numberOfBytes": "20"
      },
      "t_array(t_address)dyn_storage": {
        "base": "t_address",
        "encoding": "dynamic_array",
        "label": "address[]",
        "numberOfBytes": "32"
      },
      "t_contract(AggregatorV3Interface)45": {
        "encoding": "inplace",
        "label": "contract AggregatorV3Interface",
        "numberOfBytes": "20"
      },
      "t_mapping(t_address,t_uint256)": {
        "encoding": "mapping",
        "key": "t_address",
        "label": "mapping(address => uint256)",
        "numberOfBytes": "32",
        "value": "t_uint256"
      },
      "t_uint256": {
        "encoding": "inplace",
        "label": "uint256",
        "numberOfBytes": "32"
      }
    }
  }
}